:100000000C9441010C9472010C9472010C947201D5
:100010000C9472010C9472010C9472010C94720194
:100020000C9472010C9472010C9472010C94720184
:100030000C9472010C9472010C9472010C94720174
:100040000C9472010C9472010C9472010C94720164
:100050000C9472010C9472010C9472010C94A80619
:100060000C9472010C9472060C9448060C94720164
:100070000C9472010C9472010C9472010C94720134
:100080000C9472010C9472010C9472010C94720124
:100090000C9472010C9472010C9472010C94720114
:1000A0000C9472010C9472010C9472010C94720104
:1000B0000C9472010C9472010C9472010C947201F4
:1000C0000C9472010C9472010C9472010C947201E4
:1000D0000C9472010C9472010C9472010C947201D4
:1000E0000C9472010C9457020C949B040C943402EF
:1000F0000C948C030C94EA020C94F2060C94940376
:100100000C949A040C9407020C9482030C946303DD
:100110000C946B030C949A030C9443020C9490037C
:100120000C94FC030C9467030C9486030C947803E2
:100130000C94CB030C945F030C949D020C943C0430
:100140000C9474030C9499030C9442060C947E0353
:100150000C949E030C9459030C9465020C946E034A
:1001600000002100240027002A002D003000330069
:1001700001010000040107010A010000220025001E
:1001800028002B002E003100340002010000050180
:1001900008010B01000020002300260029002C008C
:1001A0002F003200000100000301060109010505CE
:1001B0000505070508080808020202020A0A0808DD
:1001C000040404040101010101010101030303030B
:1001D00003030303040707070C0C0C0C0C0C0C0C9A
:1001E0000202020206060606060606060B0B0B0BAB
:1001F0000B0B0B0B010210202008081020401020D0
:1002000040800201020108040201010204081020DA
:1002100040808040201008040201800402018040D8
:100220002010080402010804020101020408102041
:100230004080010204081020408000000A0B0209DF
:100240000C0D0E0807030401000000000000000070
:10025000000000000000000000000000000000009E
:10026000000000000000121110000000000000005B
:10027000000000000000000000000000000000007E
:10028000F20611241FBECFEFD1E2DEBFCDBF00E0EA
:100290000CBF12E0A0E0B2E0E4EFFAE100E00BBF37
:1002A00002C007900D92AE37B107D9F723E0AEE751
:1002B000B2E001C01D92A53BB207E1F711E0C1E435
:1002C000D1E000E006C021970109802FFE010E94C5
:1002D000670DC034D10780E00807A9F70E94AC077A
:1002E0000C94780D0C94000096E0899FD0011124A5
:1002F000A25DBC4F90967C936E935F9791E0919630
:100300009C939197E0919B03F0919C0390919A03A9
:10031000992339F0309751F0811108C080914A0338
:100320001994309719F05C968C91FACF0895CF927A
:10033000DF92EF92FF920F931F9396E0899FF00157
:100340001124E25DFC4F11A2278D30A1213031052F
:1003500051F178F02230310509F451C023303105D4
:1003600009F452C01F910F91FF90EF90DF90CF9052
:1003700008956623B9F361E070E00E9474012FB71D
:10038000F89480918D0290918E02A0918F02B0918D
:1003900090022FBF8093860390938703A0938803D6
:1003A000B0938903DFCF9FB7F894C0908D02D090AF
:1003B0008E02E0908F02F09090029FBF0091860322
:1003C000109187032091880330918903C01AD10AC4
:1003D000E20AF30A009198031091990330E020E0BB
:1003E0000C151D052E053F0550F462E070E01F91CD
:1003F0000F91FF90EF90DF90CF900C9474016111FA
:10040000B1CF63E070E0F3CF70E060E0F0CFAF9287
:10041000BF92CF92DF92EF92FF920F931F93CF93F1
:10042000DF936C017B018B01040F151FEB015E0153
:10043000AE18BF08C017D10759F06991D601ED91E8
:10044000FC910190F081E02DC6011995892B79F777
:10045000C501DF91CF911F910F91FF90EF90DF9039
:10046000CF90BF90AF900895FC01538D448D252F00
:1004700030E0842F90E0821B930B541710F0CF963E
:10048000089501970895FC01918D828D981761F070
:10049000A28DAE0FBF2FB11D5D968C91928D9F5F87
:1004A0009F73928F90E008958FEF9FEF0895FC0166
:1004B000918D828D981731F0828DE80FF11D858D19
:1004C00090E008958FEF9FEF0895FC01918D228DAC
:1004D000892F90E0805C9F4F821B91098F73992731
:1004E000089581E992E00E94650221E0892B09F4D8
:1004F00020E0822F0895FC01A48DA80FB92FB11D13
:10050000A35ABF4F2C91848D90E001968F73992749
:10051000848FA689B7892C93A089B1898C91837027
:1005200080648C93938D848D981306C00288F38920
:10053000E02D80818F7D80830895EF92FF920F934D
:100540001F93CF93DF93EC0181E0888F9B8D8C8D7F
:1005500098131AC0E889F989808185FF15C09FB773
:10056000F894EE89FF896083E889F9898081837036
:10057000806480839FBF81E090E0DF91CF911F91E5
:100580000F91FF90EF900895F62E0B8D10E00F5F06
:100590001F4F0F731127E02E8C8D8E110CC00FB6DC
:1005A00007FCFACFE889F989808185FFF5CFCE0174
:1005B0000E947B02F1CFEB8DEC0FFD2FF11DE35A72
:1005C000FF4FF0829FB7F8940B8FEA89FB898081F7
:1005D0008062CFCFCF93DF93EC01888D8823B9F071
:1005E000AA89BB89E889F9898C9185FD03C080813E
:1005F00086FD0DC00FB607FCF7CF8C9185FFF2CFBB
:10060000808185FFEDCFCE010E947B02E9CFDF9193
:10061000CF91089580E090E0892B29F00E9471022B
:1006200081110E94000080E090E0892B49F080E079
:1006300090E0892B29F00E94000081110E940000A7
:1006400080E090E0892B49F080E090E0892B29F050
:100650000E94000081110E94000080E090E0892B40
:1006600049F080E090E0892B29F00E940000811180
:100670000C94000008958150823108F05AC0E82F90
:10068000F0E08827E95BFC4F8F4F0C94670D670300
:100690006B0359035F03630399036E0374037803C9
:1006A0007E03820386038C039003990394039A03C9
:1006B0009E03809180008F778093800008958091C1
:1006C00080008F7DF9CF80918000877FF5CF84B542
:1006D0008F7784BD089584B58F7DFBCF8091B00066
:1006E0008F778093B00008958091B0008F7DF9CF0F
:1006F000809190008F778093900008958091900072
:100700008F7DF9CF80919000877FF5CF8091A000F9
:100710008F778093A00008958091A0008F7DF9CFFE
:100720008091A000877FF5CF809120018F77809303
:1007300020010895809120018F7DF9CF80912001C3
:10074000877FF5CFCF93DF93282F30E0F901E65C68
:10075000FD4F8491F901EC50FE4FD491F901E2551F
:10076000FE4FC491CC23A1F081110E943B03EC2FDA
:10077000F0E0EE0FFF1FEC56FE4FA591B491EC9107
:10078000ED2381E090E009F480E0DF91CF910895BE
:1007900080E090E0FACF862F0C94A2031F93CF93B2
:1007A000DF93282F30E0F901E65CFD4F8491F901D9
:1007B000EC50FE4FD491F901E255FE4FC491CC2389
:1007C000A9F0162F81110E943B03EC2FF0E0EE0FF1
:1007D000FF1FE658FE4FA591B4918FB7F894EC91A6
:1007E000111108C0D095DE23DC938FBFDF91CF912C
:1007F0001F910895DE2BF8CF862F642F0C94CE0323
:10080000CF93DF9390E0FC01EC50FE4F2491825592
:100810009E4FFC0184918823C9F090E0880F991FB6
:10082000FC01E05AFE4FA591B491FC01E658FE4F41
:10083000C591D49161110DC09FB7F8948C9120950A
:1008400082238C938881282328839FBFDF91CF91B7
:100850000895623051F49FB7F8943C91822F8095AF
:1008600083238C93E8812E2BEFCF8FB7F894EC91F4
:100870002E2B2C938FBFEACF862F642F0C9400046D
:100880003FB7F89480917F0290918002A0918102FD
:10089000B091820226B5A89B05C02F3F19F00196A2
:1008A000A11DB11D3FBFBA2FA92F982F8827BC01CA
:1008B000CD01620F711D811D911D42E0660F771FF2
:1008C000881F991F4A95D1F708958F929F92AF92F2
:1008D000BF92CF92DF92EF92FF920E9440044B01B1
:1008E0005C0184E6C82ED12CE12CF12C0E9440043E
:1008F000681979098A099B09683E73408105910549
:10090000A8F321E0C21AD108E108F10888EE880EA8
:1009100083E0981EA11CB11CC114D104E104F104B0
:1009200029F7FF90EF90DF90CF90BF90AF909F900E
:100930008F900895089590E080E00895FC01019063
:100940000020E9F73197AF01481B590BBC018DE935
:1009500093E00C9407028F929F92AF92BF920F93F5
:100960001F93CF93DF93CDB7DEB7A1970FB6F8945F
:10097000DEBF0FBECDBF19A2423008F44AE08E019F
:100980000F5D1F4F842E912CB12CA12CA501940139
:100990000E94450DE62FB901CA01EA30F4F4E05D8A
:1009A000D801EE938D01232B242B252B79F790E092
:1009B00080E0109719F0CD010E949E04A1960FB619
:1009C000F894DEBF0FBECDBFDF91CF911F910F9185
:1009D000BF90AF909F908F900895E95CE1CFCF9347
:1009E000DF93EC0160E08E810E94CE0361E08E8196
:1009F0000E94CE0360E08E810E94CE038BE891E0DE
:100A00000197F1F7DF91CF910895CF92DF92EF92A6
:100A1000FF920F931F93CF93DF936C017C0187E0CC
:100A2000E80EF11CD0E0C0E0062F10E0B8010C2E5B
:100A300002C0759567950A94E2F76170F70181919C
:100A40007F010E94CE032196C430D10579F7C601FB
:100A5000DF91CF911F910F91FF90EF90DF90CF909A
:100A60000C94EF04CF92DF92EF92FF920F931F93BB
:100A7000CF93DF93EC01F62E642F8C810E94CE037E
:100A80008D818F3F19F060E00E94CE030F2D10E0A2
:100A90008F8584FF25C06E0187E0C80ED11CF12C24
:100AA000E12CB8010E2C02C0759567950A94E2F707
:100AB0006170F60181916F010E94CE03FFEFEF1A82
:100AC000FF0A88E0E816F10461F7CE01DF91CF91CB
:100AD0001F910F91FF90EF90DF90CF900C94EF0457
:100AE000B80184E0759567958A95E1F7CE010E947B
:100AF00005056F2DCE01DF91CF911F910F91FF90D2
:100B0000EF90DF90CF900C94050540E0682F8DE9C1
:100B100093E00C94320581E00E9485058BE39FE110
:100B20000197F1F70895CF93DF93823029F49091E4
:100B3000AC0398609093AC038093B0031092B10320
:100B400080E48093B20380E18093B30380E58093D7
:100B5000B40361E08091A1030E9400048091A2038C
:100B60008F3F19F061E00E94000461E08091A303CF
:100B70000E940004CDE9D3E09E012D5933408091BD
:100B8000AC0384FD0BC084E090E021962817390760
:100B900044F461E08E810E940004EECF88E090E092
:100BA000F4CF8BE39DE00197F1F760E08091A10322
:100BB0000E94CE0360E08091A3030E94CE03809147
:100BC000A2038F3F19F060E00E94CE038091AC0336
:100BD00084FD34C063E08DE993E00E940505CBE419
:100BE000D6E4CE010197F1F763E08DE993E00E942E
:100BF00005052197F1F763E08DE993E00E94050573
:100C000083E592E00197F1F762E08DE993E00E94BD
:100C100005058091AC0380620E94850584E0809385
:100C2000AD038CE00E9485050E948B0582E08093D5
:100C3000AE0386E0DF91CF910C94850580620E941F
:100C400085058BE496E40197F1F78091AC0380620F
:100C50000E94850583E592E00197F1F78091AC034E
:100C600080620E948505D5CF9091B003891710F05E
:100C70008FEF890FE82FF0E0E356FC4F84898068FE
:100C80000C94850541E00E94320581E090E00895D2
:100C90001F920F920FB60F9211240BB60F922F9343
:100CA0003F934F935F936F937F938F939F93AF93F4
:100CB000BF93EF93FF9381E992E00E947B02FF9143
:100CC000EF91BF91AF919F918F917F916F915F91C4
:100CD0004F913F912F910F900BBE0F900FBE0F9031
:100CE0001F9018951F920F920FB60F9211240BB6FA
:100CF0000F922F938F939F93EF93FF93E091A10215
:100D0000F091A2028081E091A702F091A80282FDF9
:100D10001DC090818091AA028F5F8F732091AB02DA
:100D2000821741F0E091AA02F0E0EF56FD4F958F57
:100D30008093AA02FF91EF919F918F912F910F9035
:100D40000BBE0F900FBE0F901F9018958081F2CFB1
:100D50001F920F920FB60F9211242F933F938F93F0
:100D60009F93AF93BF9380918D0290918E02A0913B
:100D70008F02B091900230917E0223E0230F2D3735
:100D800058F50196A11DB11D20937E0280938D021E
:100D900090938E02A0938F02B093900280917F0275
:100DA00090918002A0918102B09182020196A11DD2
:100DB000B11D80937F0290938002A0938102B09333
:100DC0008202BF91AF919F918F913F912F910F9090
:100DD0000FBE0F901F90189526E8230F0296A11DB5
:100DE000B11DD2CF109294021092930288EE93E03C
:100DF000A0E0B0E08093950290939602A0939702B2
:100E0000B09398028CE192E09093920280939102C9
:100E100085EC90E090939E0280939D0284EC90E09C
:100E20009093A00280939F0280EC90E09093A202A6
:100E30008093A10281EC90E09093A4028093A3029E
:100E400082EC90E09093A6028093A50286EC90E05D
:100E50009093A8028093A7021092AA021092AB026C
:100E60001092AC021092AD021092A00310929F0358
:100E700088E392E090939E0380939D0389E08093A2
:100E8000A1038FEF8093A20388E08093A30387E000
:100E90008093A40386E08093A50385E08093A60356
:100EA00084E08093A7031092A8031092A9031092E4
:100EB000AA031092AB031092AC0381E00E94930549
:100EC00010923003109234031092330310923503C2
:100ED0008EE292E090932F0380932E03EAE4F3E0F6
:100EE0001082148213821582369683E0E638F80762
:100EF000B9F788E092E0909391038093900385E0A6
:100F000092E0909393038093920384E08093940300
:100F100083E0809395038CE092E090938F0380931D
:100F20008E038AE090E0909397038093960384EF7A
:100F300091E0909399038093980310929C031092F0
:100F40009B0310928A0310928B0310928C031092D1
:100F50008D0310929A030895789484B5826084BDBD
:100F600084B5816084BD85B5826085BD85B58160AD
:100F700085BD80916E00816080936E00109281002B
:100F800080918100826080938100809181008160E6
:100F900080938100809180008160809380008091A7
:100FA000B10084608093B1008091B0008160809333
:100FB000B0008091910082608093910080919100B7
:100FC0008160809391008091900081608093900077
:100FD0008091A10082608093A1008091A100816036
:100FE0008093A1008091A00081608093A0008091F7
:100FF0002101826080932101809121018160809391
:1010000021018091200181608093200180917A00EC
:10101000846080937A0080917A00826080937A0065
:1010200080917A00816080937A0080917A00806854
:1010300080937A001092C100E091A102F091A20287
:1010400082E08083E0919D02F0919E021082E09107
:101050009F02F091A0028FEC80831092A902E09190
:10106000A502F091A60286E08083E091A302F091B0
:10107000A402808180618083E091A302F091A402A8
:10108000808188608083E091A302F091A402808136
:1010900080688083E091A302F091A40280818F7D1B
:1010A000808360E08DE00E94000461E08CE00E949B
:1010B000000460E08BE00E94000461E08AE00E948E
:1010C000000482E00E94930580E00E94340661E003
:1010D00083E00E94000461E082E00E94000460E07E
:1010E00083E00E94CE0360E082E00E94CE032224CF
:1010F0002A94322C8DE00E94A20361E0892B09F42E
:1011000060E08CE00E94CE038BE00E94A20361E0CD
:10111000019709F060E08AE00E94CE0380917B0095
:10112000877F80937B0051E450937C0080917A000C
:10113000806480937A0080917A0086FDFCCF809154
:10114000780060917900762F682F072E000C880BAD
:10115000990B0E941E0C20E030EC4FE754E40E94F3
:101160007B0B20E030E44CE955E40E94D30C20E0F6
:1011700030E040E251E40E947B0B6B017C014B01AB
:101180005C01C0928902D0928A02E0928B02F092B6
:101190008C02AC019B010E94400D882309F459C0C8
:1011A00080E492E00E949E04C0908902D0908A025E
:1011B000E0908B02F0908C0220E030E040EA51E4B5
:1011C000C701B6010E94760B87FFD9C081E00E945B
:1011D00034068CE492E00E949E040E9465040E9402
:1011E0008B0581E080939A038FB7F89440918D022C
:1011F00050918E0260918F02709190028FBF80910A
:101200008A0390918B03A0918C03B0918D03481BAE
:10121000590B6A0B7B0B8091960390919703B0E07A
:10122000A0E084179507A607B70708F0DEC1C0E065
:1012300080919403C81708F0B8C0E0919003F09132
:101240009103EC0FF11D62E080810E940004CF5FEA
:10125000EFCF26013701E89477F82FEF3FEF4FE704
:101260005FE7C301B2010E94400D81110DC02FEF55
:101270003FEF4FE75FE7C301B2010E94760B1816FC
:101280001CF484E492E08ECF2FEF3FEF4FE75FE452
:10129000C701B6010E94CE0C18161CF488E492E037
:1012A00081CF2FEF3FEF4FE75FECC701B6010E9400
:1012B000760B87FDF3CF20E030E0A901C701B6012E
:1012C0000E94760B87FF0CC041E06DE28DE993E050
:1012D0000E94320546015701B7FAB094B7F8B094AE
:1012E0002AE037ED43EA5BE3C501B4010E940A0B33
:1012F0004B015C010E94ED0B6B017C010E941C0CF8
:101300009B01AC01C501B4010E94090B4B015C01BA
:101310004AE0C701B6010E94AB0441E06EE28DE9EC
:1013200093E00E94320520E030E040E251E4C50144
:10133000B4010E94D30C4B015C010E94ED0B6B01C8
:10134000F12CE12C4AE0C701B6010E94AB04C701B1
:10135000B6010E941C0C9B01AC01C501B4010E94A6
:10136000090B20E030E040E251E40E94D30C0E94DF
:10137000ED0B90E080E04AE00E94AB0415CF20E046
:1013800030E040EF51E4C701B6010E94CE0C1816C0
:1013900034F481E00E9434068DE592E01CCF81E0B8
:1013A0000E9434068DE692E016CF10E080919503FE
:1013B000181708F061C0E12EF12CE0919203F09132
:1013C0009303EE0DFF1D61E080810E940004E09117
:1013D0009203F0919303EE0DFF1D60E080810E9467
:1013E000CE0381E090E0A0E0B0E0012E04C0880FC1
:1013F000991FAA1FBB1F0A94D2F75C016C01C0940D
:10140000D09400E0809194030817F8F4C02FD0E046
:10141000E0919003F0919103EC0FFD1F80810E94F9
:10142000A2032496CC0FDD1FC25DDC4F892B41F453
:10143000888199818A299B29998388830F5FE2CFCC
:10144000888199818C219D21F7CFE0919203F091C1
:101450009303EE0DFF1D61E080810E94CE03809119
:10146000920390919303E80EF91E60E0F7018081EA
:101470000E9400041F5F9ACF0EE213E0E8018F8DF7
:1014800098A1892B21F41C8E3E8E2D8E19A22696B2
:101490008AE693E08C179D0791F7F12C80919403D5
:1014A000F81608F053C0E12CCF2CD12CCC0CDD1C4D
:1014B000F601EA5CFC4F6F0120919503E21608F0FB
:1014C00043C0F601608171810E2C02C0769567954C
:1014D0000A94E2F7F29E900111242E0D311DEEE2E6
:1014E000F3E080E0458D568D2417350709F48FC051
:1014F0008F5F36968A30B1F760FF24C0EEE2F3E0EA
:1015000090E080E0448D411118C0E0918E03F0918D
:101510008F03E20FF31F408156E0589FF001599F5F
:10152000F00D1124E25DFC4F448F368F258F10A201
:10153000178E61E00E94970105C0019636968A30A9
:10154000910501F7E394B8CFF394A8CF80E0F801B8
:1015500091A19111892F0A5F1F4F0C171D07B9F731
:101560009FB7F89440918D0250918E0260918F0246
:10157000709190029FBF40938A0350938B036093B6
:101580008C0370938D03882381F180918802909160
:101590004F03992351F120914D0330914E03213097
:1015A000310519F590914A03911122C0C09188022A
:1015B000C430C1F460E072E083E892E00E946F0DF5
:1015C00061E0892BF1F482E00E94CE0360E083E0C9
:1015D0000E94CE03E8E8F2E0C1501292C111FCCFA4
:1015E000109288020E940A0385CD10929A03DECFE2
:1015F000E82FF0E0ED57FD4F90838F5F80938802D6
:10160000D5CF83E00E94CE0360E082E0E1CF61703D
:1016100091CF5058BB27AA270E94210B0C94940C01
:101620000E94860C38F00E948D0C20F039F49F3F08
:1016300019F426F40C94830C0EF4E095E7FB0C945B
:101640007D0CE92F0E94A50C58F3BA1762077307A7
:101650008407950720F079F4A6F50C94C70C0EF4D6
:10166000E0950B2EBA2FA02D0B01B90190010C01B2
:10167000CA01A0011124FF27591B99F0593F50F4CA
:10168000503E68F11A16F040A22F232F342F442722
:10169000585FF3CF469537952795A795F04053951A
:1016A000C9F77EF41F16BA0B620B730B840BBAF0EA
:1016B0009150A1F0FF0FBB1F661F771F881FC2F755
:1016C0000EC0BA0F621F731F841F48F48795779569
:1016D0006795B795F7959E3F08F0B0CF9395880F23
:1016E00008F09927EE0F9795879508950E94590C59
:1016F00008F481E008950E948F0B0C94940C0E94D2
:101700008D0C58F00E94860C40F029F45F3F29F0C0
:101710000C947D0C51110C94C80C0C94830C0E94F9
:10172000A50C68F39923B1F3552391F3951B550B41
:10173000BB27AA2762177307840738F09F5F5F4FA4
:10174000220F331F441FAA1FA9F335D00E2E3AF0E3
:10175000E0E832D091505040E695001CCAF72BD0FB
:10176000FE2F29D0660F771F881FBB1F261737074C
:101770004807AB07B0E809F0BB0B802DBF01FF277E
:1017800093585F4F3AF09E3F510578F00C947D0CD2
:101790000C94C80C5F3FE4F3983ED4F3869577959C
:1017A0006795B795F7959F5FC9F7880F911D969537
:1017B000879597F90895E1E0660F771F881FBB1F93
:1017C000621773078407BA0720F0621B730B840B40
:1017D000BA0BEE1F88F7E09508950E94AD0C88F0D3
:1017E0009F5798F0B92F9927B751B0F0E1F0660FE5
:1017F000771F881F991F1AF0BA95C9F714C0B13026
:1018000091F00E94C70CB1E008950C94C70C672FAB
:10181000782F8827B85F39F0B93FCCF38695779554
:101820006795B395D9F73EF490958095709561953D
:101830007F4F8F4F9F4F0895E89409C097FB3EF468
:1018400090958095709561957F4F8F4F9F4F99230D
:10185000A9F0F92F96E9BB279395F695879577958B
:101860006795B795F111F8CFFAF4BB0F11F460FF4B
:101870001BC06F5F7F4F8F4F9F4F16C0882311F0A3
:1018800096E911C0772321F09EE8872F762F05C0B7
:10189000662371F096E8862F70E060E02AF09A9552
:1018A000660F771F881FDAF7880F9695879597F947
:1018B0000895990F0008550FAA0BE0E8FEEF1616E1
:1018C0001706E807F907C0F012161306E407F50734
:1018D00098F0621B730B840B950B39F40A2661F0A8
:1018E000232B242B252B21F408950A2609F4A1404B
:1018F000A6958FEF811D811D089597F99F6780E858
:1019000070E060E008959FEF80EC089500240A9451
:101910001616170618060906089500240A941216CA
:101920001306140605060895092E0394000C11F4FD
:10193000882352F0BB0F40F4BF2B11F460FF04C0AA
:101940006F5F7F4F8F4F9F4F089557FD9058440F03
:10195000551F59F05F3F71F04795880F97FB991F0E
:1019600061F09F3F79F087950895121613061406CB
:10197000551FF2CF4695F1DF08C016161706180658
:10198000991FF1CF86957105610508940895E89433
:10199000BB2766277727CB0197F908950E94590C3A
:1019A00008F48FEF08950E94E60C0C94940C0E94AA
:1019B000860C38F00E948D0C20F0952311F00C94C9
:1019C0007D0C0C94830C11240C94C80C0E94A50C63
:1019D00070F3959FC1F3950F50E0551F629FF00182
:1019E000729FBB27F00DB11D639FAA27F00DB11D9B
:1019F000AA1F649F6627B00DA11D661F829F222724
:101A0000B00DA11D621F739FB00DA11D621F839FAA
:101A1000A00D611D221F749F3327A00D611D231F80
:101A2000849F600D211D822F762F6A2F11249F57CE
:101A300050409AF0F1F088234AF0EE0FFF1FBB1FD1
:101A4000661F771F881F91505040A9F79E3F510590
:101A500080F00C947D0C0C94C80C5F3FE4F3983E2E
:101A6000D4F3869577956795B795F795E7959F5F3A
:101A7000C1F7FE2B880F911D9695879597F90895CC
:101A80000E94590C880B990B0895A1E21A2EAA1BEB
:101A9000BB1BFD010DC0AA1FBB1FEE1FFF1FA2171E
:101AA000B307E407F50720F0A21BB30BE40BF50B1B
:101AB000661F771F881F991F1A9469F760957095A4
:101AC000809590959B01AC01BD01CF010895EE0F6B
:101AD000FF1F881F8BBF0790F691E02D1994FB0123
:101AE000DC018D91019080190110D9F3990B0895B3
:041AF000F894FFCF98
:101AF4003139313900100F0E1112131431323334CD
:101B040035363738392A3023000000009D02070299
:101B14003402EA02650243025702000000003C045A
:101B2400FC03CB0300000000420607029B049A0456
:101B34006E616E00696E66006F766600536963615C
:101B44006B6C696B20415A414C44492100536963D1
:101B5400616B6C696B20415254544921004E6F7281
:0E1B64006D616C20536963616B6C696B0000EE
:00000001FF
